{
  "contractName": "MedProof",
  "abi": [
    {
      "inputs": [],
      "stateMutability": "nonpayable",
      "type": "constructor"
    },
    {
      "anonymous": false,
      "inputs": [
        {
          "indexed": true,
          "internalType": "address",
          "name": "actorAddress",
          "type": "address"
        },
        {
          "indexed": false,
          "internalType": "string",
          "name": "name",
          "type": "string"
        },
        {
          "indexed": false,
          "internalType": "uint256",
          "name": "actorType",
          "type": "uint256"
        }
      ],
      "name": "ActorRegistered",
      "type": "event"
    },
    {
      "anonymous": false,
      "inputs": [
        {
          "indexed": false,
          "internalType": "string",
          "name": "medicationID",
          "type": "string"
        },
        {
          "indexed": false,
          "internalType": "address",
          "name": "registeredBy",
          "type": "address"
        },
        {
          "indexed": false,
          "internalType": "bytes32",
          "name": "detailsHash",
          "type": "bytes32"
        }
      ],
      "name": "MedicationRegistered",
      "type": "event"
    },
    {
      "anonymous": false,
      "inputs": [
        {
          "indexed": true,
          "internalType": "string",
          "name": "medicationID",
          "type": "string"
        },
        {
          "indexed": true,
          "internalType": "address",
          "name": "fromAddress",
          "type": "address"
        },
        {
          "indexed": true,
          "internalType": "address",
          "name": "toAddress",
          "type": "address"
        }
      ],
      "name": "MedicationTransferred",
      "type": "event"
    },
    {
      "anonymous": false,
      "inputs": [
        {
          "indexed": true,
          "internalType": "string",
          "name": "medicationID",
          "type": "string"
        },
        {
          "indexed": false,
          "internalType": "address",
          "name": "validator",
          "type": "address"
        }
      ],
      "name": "MedicationValidated",
      "type": "event"
    },
    {
      "inputs": [
        {
          "internalType": "address",
          "name": "",
          "type": "address"
        }
      ],
      "name": "actors",
      "outputs": [
        {
          "internalType": "string",
          "name": "name",
          "type": "string"
        },
        {
          "internalType": "uint256",
          "name": "actorType",
          "type": "uint256"
        },
        {
          "internalType": "bool",
          "name": "isRegistered",
          "type": "bool"
        }
      ],
      "stateMutability": "view",
      "type": "function",
      "constant": true
    },
    {
      "inputs": [
        {
          "internalType": "string",
          "name": "",
          "type": "string"
        }
      ],
      "name": "medications",
      "outputs": [
        {
          "internalType": "string",
          "name": "medicationID",
          "type": "string"
        },
        {
          "internalType": "address",
          "name": "registeredBy",
          "type": "address"
        },
        {
          "internalType": "address",
          "name": "currentHolder",
          "type": "address"
        },
        {
          "internalType": "bytes32",
          "name": "detailsHash",
          "type": "bytes32"
        },
        {
          "internalType": "bool",
          "name": "isValidated",
          "type": "bool"
        }
      ],
      "stateMutability": "view",
      "type": "function",
      "constant": true
    },
    {
      "inputs": [],
      "name": "owner",
      "outputs": [
        {
          "internalType": "address",
          "name": "",
          "type": "address"
        }
      ],
      "stateMutability": "view",
      "type": "function",
      "constant": true
    },
    {
      "inputs": [
        {
          "internalType": "address",
          "name": "_actorAddress",
          "type": "address"
        },
        {
          "internalType": "string",
          "name": "_name",
          "type": "string"
        },
        {
          "internalType": "uint256",
          "name": "_actorType",
          "type": "uint256"
        }
      ],
      "name": "registerActor",
      "outputs": [],
      "stateMutability": "nonpayable",
      "type": "function"
    },
    {
      "inputs": [
        {
          "internalType": "string",
          "name": "_medicationID",
          "type": "string"
        },
        {
          "internalType": "bytes32",
          "name": "_detailsHash",
          "type": "bytes32"
        }
      ],
      "name": "registerMedication",
      "outputs": [],
      "stateMutability": "nonpayable",
      "type": "function"
    },
    {
      "inputs": [
        {
          "internalType": "string",
          "name": "_medicationID",
          "type": "string"
        },
        {
          "internalType": "address",
          "name": "_toAddress",
          "type": "address"
        }
      ],
      "name": "transferMedication",
      "outputs": [],
      "stateMutability": "nonpayable",
      "type": "function"
    },
    {
      "inputs": [
        {
          "internalType": "string",
          "name": "_medicationID",
          "type": "string"
        }
      ],
      "name": "sellMedication",
      "outputs": [],
      "stateMutability": "nonpayable",
      "type": "function"
    },
    {
      "inputs": [
        {
          "internalType": "string",
          "name": "_medicationID",
          "type": "string"
        }
      ],
      "name": "verifyMedication",
      "outputs": [
        {
          "internalType": "address",
          "name": "registeredBy",
          "type": "address"
        },
        {
          "internalType": "bytes32",
          "name": "detailsHash",
          "type": "bytes32"
        },
        {
          "internalType": "bool",
          "name": "isValidated",
          "type": "bool"
        }
      ],
      "stateMutability": "view",
      "type": "function",
      "constant": true
    },
    {
      "inputs": [
        {
          "internalType": "string",
          "name": "_medicationID",
          "type": "string"
        }
      ],
      "name": "validateMedication",
      "outputs": [],
      "stateMutability": "nonpayable",
      "type": "function"
    },
    {
      "inputs": [
        {
          "internalType": "address",
          "name": "newOwner",
          "type": "address"
        }
      ],
      "name": "changeOwner",
      "outputs": [],
      "stateMutability": "nonpayable",
      "type": "function"
    }
  ],
  "bytecode": "0x608060405234801561001057600080fd5b50336000806101000a81548173ffffffffffffffffffffffffffffffffffffffff021916908373ffffffffffffffffffffffffffffffffffffffff16021790555061203c806100606000396000f3fe608060405234801561001057600080fd5b506004361061009e5760003560e01c8063909107ec11610066578063909107ec146101495780639b5195dd14610165578063a6f9dae114610181578063eaa66a3c1461019d578063ec543c4a146101cf5761009e565b80631824d485146100a35780632534426b146100bf5780632ef53ff6146100f3578063881001c91461010f5780638da5cb5b1461012b575b600080fd5b6100bd60048036038101906100b89190611533565b610201565b005b6100d960048036038101906100d49190611533565b6103f8565b6040516100ea959493929190611679565b60405180910390f35b61010d600480360381019061010891906116ff565b610519565b005b61012960048036038101906101249190611533565b6107a9565b005b610133610a1a565b604051610140919061175b565b60405180910390f35b610163600480360381019061015e91906117a2565b610a3e565b005b61017f600480360381019061017a9190611834565b610d4f565b005b61019b600480360381019061019691906118a3565b610fad565b005b6101b760048036038101906101b291906118a3565b61107e565b6040516101c6939291906118df565b60405180910390f35b6101e960048036038101906101e49190611533565b61113d565b6040516101f89392919061191d565b60405180910390f35b60008054906101000a900473ffffffffffffffffffffffffffffffffffffffff1673ffffffffffffffffffffffffffffffffffffffff163373ffffffffffffffffffffffffffffffffffffffff161461028f576040517f08c379a0000000000000000000000000000000000000000000000000000000008152600401610286906119c6565b60405180910390fd5b60006002826040516102a19190611a22565b908152602001604051809103902060000180546102bd90611a68565b9050036102ff576040517f08c379a00000000000000000000000000000000000000000000000000000000081526004016102f690611ae5565b60405180910390fd5b60028160405161030f9190611a22565b908152602001604051809103902060040160009054906101000a900460ff161561036e576040517f08c379a000000000000000000000000000000000000000000000000000000000815260040161036590611b51565b60405180910390fd5b60016002826040516103809190611a22565b908152602001604051809103902060040160006101000a81548160ff021916908315150217905550806040516103b69190611a22565b60405180910390207f8d3c1523af52675cd4bf93632f9c9cf81daedc7a582f93b08750cfc53bb49864336040516103ed919061175b565b60405180910390a250565b60028180516020810182018051848252602083016020850120818352809550505050505060009150905080600001805461043190611a68565b80601f016020809104026020016040519081016040528092919081815260200182805461045d90611a68565b80156104aa5780601f1061047f576101008083540402835291602001916104aa565b820191906000526020600020905b81548152906001019060200180831161048d57829003601f168201915b5050505050908060010160009054906101000a900473ffffffffffffffffffffffffffffffffffffffff16908060020160009054906101000a900473ffffffffffffffffffffffffffffffffffffffff16908060030154908060040160009054906101000a900460ff16905085565b600160003373ffffffffffffffffffffffffffffffffffffffff1673ffffffffffffffffffffffffffffffffffffffff16815260200190815260200160002060020160009054906101000a900460ff166105a8576040517f08c379a000000000000000000000000000000000000000000000000000000000815260040161059f90611bbd565b60405180910390fd5b60006002836040516105ba9190611a22565b908152602001604051809103902060000180546105d690611a68565b905014610618576040517f08c379a000000000000000000000000000000000000000000000000000000000815260040161060f90611c29565b60405180910390fd5b60006040518060a001604052808481526020013373ffffffffffffffffffffffffffffffffffffffff1681526020013373ffffffffffffffffffffffffffffffffffffffff168152602001838152602001600015158152509050806002846040516106839190611a22565b908152602001604051809103902060008201518160000190805190602001906106ad929190611336565b5060208201518160010160006101000a81548173ffffffffffffffffffffffffffffffffffffffff021916908373ffffffffffffffffffffffffffffffffffffffff16021790555060408201518160020160006101000a81548173ffffffffffffffffffffffffffffffffffffffff021916908373ffffffffffffffffffffffffffffffffffffffff1602179055506060820151816003015560808201518160040160006101000a81548160ff0219169083151502179055509050507ffda6bc65b3cc7f5031609c506ad18cbfccc79354b5e639546989869c0b15fe4483338460405161079c93929190611c49565b60405180910390a1505050565b600160003373ffffffffffffffffffffffffffffffffffffffff1673ffffffffffffffffffffffffffffffffffffffff16815260200190815260200160002060020160009054906101000a900460ff16610838576040517f08c379a000000000000000000000000000000000000000000000000000000000815260040161082f90611bbd565b60405180910390fd5b600060028260405161084a9190611a22565b9081526020016040518091039020600001805461086690611a68565b9050036108a8576040517f08c379a000000000000000000000000000000000000000000000000000000000815260040161089f90611ae5565b60405180910390fd5b3373ffffffffffffffffffffffffffffffffffffffff166002826040516108cf9190611a22565b908152602001604051809103902060020160009054906101000a900473ffffffffffffffffffffffffffffffffffffffff1673ffffffffffffffffffffffffffffffffffffffff16148015610977575060028081111561093257610931611c87565b5b600160003373ffffffffffffffffffffffffffffffffffffffff1673ffffffffffffffffffffffffffffffffffffffff16815260200190815260200160002060010154145b6109b6576040517f08c379a00000000000000000000000000000000000000000000000000000000081526004016109ad90611d4e565b60405180910390fd5b60006002826040516109c89190611a22565b908152602001604051809103902060020160006101000a81548173ffffffffffffffffffffffffffffffffffffffff021916908373ffffffffffffffffffffffffffffffffffffffff16021790555050565b60008054906101000a900473ffffffffffffffffffffffffffffffffffffffff1681565b600160003373ffffffffffffffffffffffffffffffffffffffff1673ffffffffffffffffffffffffffffffffffffffff16815260200190815260200160002060020160009054906101000a900460ff16610acd576040517f08c379a0000000000000000000000000000000000000000000000000000000008152600401610ac490611bbd565b60405180910390fd5b6000600283604051610adf9190611a22565b90815260200160405180910390206000018054610afb90611a68565b905003610b3d576040517f08c379a0000000000000000000000000000000000000000000000000000000008152600401610b3490611ae5565b60405180910390fd5b3373ffffffffffffffffffffffffffffffffffffffff16600283604051610b649190611a22565b908152602001604051809103902060020160009054906101000a900473ffffffffffffffffffffffffffffffffffffffff1673ffffffffffffffffffffffffffffffffffffffff1614610bec576040517f08c379a0000000000000000000000000000000000000000000000000000000008152600401610be390611de0565b60405180910390fd5b600160008273ffffffffffffffffffffffffffffffffffffffff1673ffffffffffffffffffffffffffffffffffffffff16815260200190815260200160002060020160009054906101000a900460ff16610c7b576040517f08c379a0000000000000000000000000000000000000000000000000000000008152600401610c7290611e72565b60405180910390fd5b80600283604051610c8c9190611a22565b908152602001604051809103902060020160006101000a81548173ffffffffffffffffffffffffffffffffffffffff021916908373ffffffffffffffffffffffffffffffffffffffff1602179055508073ffffffffffffffffffffffffffffffffffffffff163373ffffffffffffffffffffffffffffffffffffffff1683604051610d179190611a22565b60405180910390207f5cb26ed286ff8d97298ab1e8cc98e57e33d3390b5c101275319fb4265d9609f260405160405180910390a45050565b60008054906101000a900473ffffffffffffffffffffffffffffffffffffffff1673ffffffffffffffffffffffffffffffffffffffff163373ffffffffffffffffffffffffffffffffffffffff1614610ddd576040517f08c379a0000000000000000000000000000000000000000000000000000000008152600401610dd4906119c6565b60405180910390fd5b600160008473ffffffffffffffffffffffffffffffffffffffff1673ffffffffffffffffffffffffffffffffffffffff16815260200190815260200160002060020160009054906101000a900460ff1615610e6d576040517f08c379a0000000000000000000000000000000000000000000000000000000008152600401610e6490611ede565b60405180910390fd5b6002811115610eb1576040517f08c379a0000000000000000000000000000000000000000000000000000000008152600401610ea890611f4a565b60405180910390fd5b604051806060016040528083815260200182815260200160011515815250600160008573ffffffffffffffffffffffffffffffffffffffff1673ffffffffffffffffffffffffffffffffffffffff1681526020019081526020016000206000820151816000019080519060200190610f2a929190611336565b506020820151816001015560408201518160020160006101000a81548160ff0219169083151502179055509050508273ffffffffffffffffffffffffffffffffffffffff167fae9f8506ce8e5986ba58dc9efa92e34f0cb949f41f7f9c295b19b268d51046218383604051610fa0929190611f6a565b60405180910390a2505050565b60008054906101000a900473ffffffffffffffffffffffffffffffffffffffff1673ffffffffffffffffffffffffffffffffffffffff163373ffffffffffffffffffffffffffffffffffffffff161461103b576040517f08c379a0000000000000000000000000000000000000000000000000000000008152600401611032906119c6565b60405180910390fd5b806000806101000a81548173ffffffffffffffffffffffffffffffffffffffff021916908373ffffffffffffffffffffffffffffffffffffffff16021790555050565b60016020528060005260406000206000915090508060000180546110a190611a68565b80601f01602080910402602001604051908101604052809291908181526020018280546110cd90611a68565b801561111a5780601f106110ef5761010080835404028352916020019161111a565b820191906000526020600020905b8154815290600101906020018083116110fd57829003601f168201915b5050505050908060010154908060020160009054906101000a900460ff16905083565b6000806000806002856040516111539190611a22565b90815260200160405180910390206040518060a001604052908160008201805461117c90611a68565b80601f01602080910402602001604051908101604052809291908181526020018280546111a890611a68565b80156111f55780601f106111ca576101008083540402835291602001916111f5565b820191906000526020600020905b8154815290600101906020018083116111d857829003601f168201915b505050505081526020016001820160009054906101000a900473ffffffffffffffffffffffffffffffffffffffff1673ffffffffffffffffffffffffffffffffffffffff1673ffffffffffffffffffffffffffffffffffffffff1681526020016002820160009054906101000a900473ffffffffffffffffffffffffffffffffffffffff1673ffffffffffffffffffffffffffffffffffffffff1673ffffffffffffffffffffffffffffffffffffffff168152602001600382015481526020016004820160009054906101000a900460ff1615151515815250509050600081600001515103611319576040517f08c379a000000000000000000000000000000000000000000000000000000000815260040161131090611fe6565b60405180910390fd5b806020015181606001518260800151935093509350509193909250565b82805461134290611a68565b90600052602060002090601f01602090048101928261136457600085556113ab565b82601f1061137d57805160ff19168380011785556113ab565b828001600101855582156113ab579182015b828111156113aa57825182559160200191906001019061138f565b5b5090506113b891906113bc565b5090565b5b808211156113d55760008160009055506001016113bd565b5090565b6000604051905090565b600080fd5b600080fd5b600080fd5b600080fd5b6000601f19601f8301169050919050565b7f4e487b7100000000000000000000000000000000000000000000000000000000600052604160045260246000fd5b611440826113f7565b810181811067ffffffffffffffff8211171561145f5761145e611408565b5b80604052505050565b60006114726113d9565b905061147e8282611437565b919050565b600067ffffffffffffffff82111561149e5761149d611408565b5b6114a7826113f7565b9050602081019050919050565b82818337600083830152505050565b60006114d66114d184611483565b611468565b9050828152602081018484840111156114f2576114f16113f2565b5b6114fd8482856114b4565b509392505050565b600082601f83011261151a576115196113ed565b5b813561152a8482602086016114c3565b91505092915050565b600060208284031215611549576115486113e3565b5b600082013567ffffffffffffffff811115611567576115666113e8565b5b61157384828501611505565b91505092915050565b600081519050919050565b600082825260208201905092915050565b60005b838110156115b657808201518184015260208101905061159b565b838111156115c5576000848401525b50505050565b60006115d68261157c565b6115e08185611587565b93506115f0818560208601611598565b6115f9816113f7565b840191505092915050565b600073ffffffffffffffffffffffffffffffffffffffff82169050919050565b600061162f82611604565b9050919050565b61163f81611624565b82525050565b6000819050919050565b61165881611645565b82525050565b60008115159050919050565b6116738161165e565b82525050565b600060a082019050818103600083015261169381886115cb565b90506116a26020830187611636565b6116af6040830186611636565b6116bc606083018561164f565b6116c9608083018461166a565b9695505050505050565b6116dc81611645565b81146116e757600080fd5b50565b6000813590506116f9816116d3565b92915050565b60008060408385031215611716576117156113e3565b5b600083013567ffffffffffffffff811115611734576117336113e8565b5b61174085828601611505565b9250506020611751858286016116ea565b9150509250929050565b60006020820190506117706000830184611636565b92915050565b61177f81611624565b811461178a57600080fd5b50565b60008135905061179c81611776565b92915050565b600080604083850312156117b9576117b86113e3565b5b600083013567ffffffffffffffff8111156117d7576117d66113e8565b5b6117e385828601611505565b92505060206117f48582860161178d565b9150509250929050565b6000819050919050565b611811816117fe565b811461181c57600080fd5b50565b60008135905061182e81611808565b92915050565b60008060006060848603121561184d5761184c6113e3565b5b600061185b8682870161178d565b935050602084013567ffffffffffffffff81111561187c5761187b6113e8565b5b61188886828701611505565b92505060406118998682870161181f565b9150509250925092565b6000602082840312156118b9576118b86113e3565b5b60006118c78482850161178d565b91505092915050565b6118d9816117fe565b82525050565b600060608201905081810360008301526118f981866115cb565b905061190860208301856118d0565b611915604083018461166a565b949350505050565b60006060820190506119326000830186611636565b61193f602083018561164f565b61194c604083018461166a565b949350505050565b7f536f6c6f20656c206f776e65722064656c20636f6e747261746f20707565646560008201527f20656a65637574617220657374612066756e63696f6e00000000000000000000602082015250565b60006119b0603683611587565b91506119bb82611954565b604082019050919050565b600060208201905081810360008301526119df816119a3565b9050919050565b600081905092915050565b60006119fc8261157c565b611a0681856119e6565b9350611a16818560208601611598565b80840191505092915050565b6000611a2e82846119f1565b915081905092915050565b7f4e487b7100000000000000000000000000000000000000000000000000000000600052602260045260246000fd5b60006002820490506001821680611a8057607f821691505b602082108103611a9357611a92611a39565b5b50919050565b7f4d656469636174696f6e20646f6573206e6f7420657869737400000000000000600082015250565b6000611acf601983611587565b9150611ada82611a99565b602082019050919050565b60006020820190508181036000830152611afe81611ac2565b9050919050565b7f4d656469636174696f6e20616c72656164792076616c69646174656400000000600082015250565b6000611b3b601c83611587565b9150611b4682611b05565b602082019050919050565b60006020820190508181036000830152611b6a81611b2e565b9050919050565b7f4e6f7420612072656769737465726564206163746f7200000000000000000000600082015250565b6000611ba7601683611587565b9150611bb282611b71565b602082019050919050565b60006020820190508181036000830152611bd681611b9a565b9050919050565b7f4d656469636174696f6e20616c72656164792072656769737465726564000000600082015250565b6000611c13601d83611587565b9150611c1e82611bdd565b602082019050919050565b60006020820190508181036000830152611c4281611c06565b9050919050565b60006060820190508181036000830152611c6381866115cb565b9050611c726020830185611636565b611c7f604083018461164f565b949350505050565b7f4e487b7100000000000000000000000000000000000000000000000000000000600052602160045260246000fd5b7f45697468657220796f7520646f206e6f74206861766520706f7373657373696f60008201527f6e206f662074686973206d656469636174696f6e206f7220796f75206172652060208201527f6e6f74206120706861726d616379000000000000000000000000000000000000604082015250565b6000611d38604e83611587565b9150611d4382611cb6565b606082019050919050565b60006020820190508181036000830152611d6781611d2b565b9050919050565b7f596f7520646f206e6f74206861766520706f7373657373696f6e206f6620746860008201527f6973206d656469636174696f6e00000000000000000000000000000000000000602082015250565b6000611dca602d83611587565b9150611dd582611d6e565b604082019050919050565b60006020820190508181036000830152611df981611dbd565b9050919050565b7f526563697069656e74206163746f72206973206e6f742072656769737465726560008201527f6400000000000000000000000000000000000000000000000000000000000000602082015250565b6000611e5c602183611587565b9150611e6782611e00565b604082019050919050565b60006020820190508181036000830152611e8b81611e4f565b9050919050565b7f4163746f72207961207265676973747261646f00000000000000000000000000600082015250565b6000611ec8601383611587565b9150611ed382611e92565b602082019050919050565b60006020820190508181036000830152611ef781611ebb565b9050919050565b7f5469706f206465206163746f7220696e76616c69646f00000000000000000000600082015250565b6000611f34601683611587565b9150611f3f82611efe565b602082019050919050565b60006020820190508181036000830152611f6381611f27565b9050919050565b60006040820190508181036000830152611f8481856115cb565b9050611f9360208301846118d0565b9392505050565b7f4d65646963616d656e746f206e6f207265676973747261646f00000000000000600082015250565b6000611fd0601983611587565b9150611fdb82611f9a565b602082019050919050565b60006020820190508181036000830152611fff81611fc3565b905091905056fea2646970667358221220622862c6fb9120bcf487fd0f04c60bc73cbaac24845748e47536b34b323ed4a664736f6c634300080d0033",
  "immutableReferences": {},
  "source": "// SPDX-License-Identifier: MIT\r\npragma solidity ^0.8.0;\r\n\r\ncontract MedProof {\r\n    enum ActorType {\r\n        Manufacturer,\r\n        Distributor,\r\n        Pharmacy\r\n    }\r\n\r\n    // Estructura para representar un actor/participante\r\n    struct Actor {\r\n        string name; // Nombre del actor\r\n        uint256 actorType; // 0: Productor, 1: Distribuidor, 2: Farmacia\r\n        bool isRegistered; // Estado de registro\r\n    }\r\n    // Estructura para representar un nuevo medicamento\r\n    struct Medication {\r\n        string medicationID; // Puede ser un cdigo de lote o cualquier identificador\r\n        address registeredBy; // Quin registr el medicamento\r\n        address currentHolder; // Quin posee actualmente el medicamento\r\n        bytes32 detailsHash; // Hash de los detalles del medicamento\r\n        bool isValidated; // Indica si el medicamento ha sido validado por el organismo regulador\r\n    }\r\n\r\n    // Direccin del organismo regulador (dueo del contrato)\r\n    address public owner;\r\n\r\n    // Mapeo de direcciones Ethereum a actores\r\n    mapping(address => Actor) public actors;\r\n    // Mapping de identificadores de medicamento a struct de medicamento\r\n    mapping(string => Medication) public medications;\r\n\r\n    // Evento para registrar la adicin de un nuevo actor\r\n    event ActorRegistered(\r\n        address indexed actorAddress,\r\n        string name,\r\n        uint256 actorType\r\n    );\r\n    // Evento para registrar un nuevo medicamento\r\n    event MedicationRegistered(\r\n        string medicationID,\r\n        address registeredBy,\r\n        bytes32 detailsHash\r\n    );\r\n    // Evento para notificar una transferencia de medicamento entre actores\r\n    event MedicationTransferred(\r\n        string indexed medicationID,\r\n        address indexed fromAddress,\r\n        address indexed toAddress\r\n    );\r\n    // Evento para registrar la validacin de un medicamento por parte del organismo regulador\r\n    event MedicationValidated(string indexed medicationID, address validator);\r\n\r\n    // Modificador para asegurarse de que solo el dueo pueda ejecutar una funcin\r\n    modifier onlyOwner() {\r\n        require(\r\n            msg.sender == owner,\r\n            \"Solo el owner del contrato puede ejecutar esta funcion\"\r\n        );\r\n        _;\r\n    }\r\n    // Modificador para asegurarnos de que solo actores registrados puedan registrar medicamentos\r\n    modifier onlyRegisteredActors() {\r\n        require(actors[msg.sender].isRegistered, \"Not a registered actor\");\r\n        _;\r\n    }\r\n\r\n    // Constructor: al desplegar el contrato, la direccin que lo despliega es el dueo (organismo regulador) El organismo controla la accin.\r\n    constructor() {\r\n        owner = msg.sender;\r\n    }\r\n\r\n    // Funciones\r\n\r\n    // Funcin para registrar un actor\r\n    function registerActor(\r\n        address _actorAddress,\r\n        string memory _name,\r\n        uint256 _actorType\r\n    ) public onlyOwner {\r\n        // Asegurarse de que la direccin no est ya registrada\r\n        require(!actors[_actorAddress].isRegistered, \"Actor ya registrado\");\r\n\r\n        // Validar el tipo de actor\r\n        require(uint256(_actorType) <= 2, \"Tipo de actor invalido\");\r\n\r\n        // Crear y almacenar el actor\r\n        actors[_actorAddress] = Actor(_name, uint256(_actorType), true);\r\n\r\n        // Emitir un evento para notificar el registro exitoso\r\n        emit ActorRegistered(_actorAddress, _name, uint256(_actorType));\r\n    }\r\n\r\n    // Funcin para registrar un medicamento\r\n    function registerMedication(\r\n        string memory _medicationID,\r\n        bytes32 _detailsHash\r\n    ) public onlyRegisteredActors {\r\n        require(\r\n            bytes(medications[_medicationID].medicationID).length == 0,\r\n            \"Medication already registered\"\r\n        );\r\n\r\n        Medication memory newMedication = Medication({\r\n            medicationID: _medicationID,\r\n            registeredBy: msg.sender,\r\n            currentHolder: msg.sender,\r\n            detailsHash: _detailsHash,\r\n            isValidated: false\r\n        });\r\n\r\n        medications[_medicationID] = newMedication;\r\n        emit MedicationRegistered(_medicationID, msg.sender, _detailsHash);\r\n    }\r\n\r\n    // Funcin para transferir un medicamento a otro actor\r\n    function transferMedication(string memory _medicationID, address _toAddress)\r\n        public\r\n        onlyRegisteredActors\r\n    {\r\n        // Asegurarse de que el medicamento exista\r\n        require(\r\n            bytes(medications[_medicationID].medicationID).length != 0,\r\n            \"Medication does not exist\"\r\n        );\r\n\r\n        // Asegurarse de que el actor que intenta transferir el medicamento es quien lo tiene en posesin\r\n        require(\r\n            medications[_medicationID].currentHolder == msg.sender,\r\n            \"You do not have possession of this medication\"\r\n        );\r\n\r\n        // Asegurarse de que el actor al que se transfiere est registrado\r\n        require(\r\n            actors[_toAddress].isRegistered,\r\n            \"Recipient actor is not registered\"\r\n        );\r\n\r\n        // Transferir la posesin del medicamento\r\n        medications[_medicationID].currentHolder = _toAddress;\r\n\r\n        // Emitir un evento para notificar la transferencia exitosa\r\n        emit MedicationTransferred(_medicationID, msg.sender, _toAddress);\r\n    }\r\n\r\n    // Funcin para simular la venta de un medicamento en una farmacia\r\n    function sellMedication(string memory _medicationID)\r\n        public\r\n        onlyRegisteredActors\r\n    {\r\n        // Asegurarse de que el medicamento exista\r\n        require(\r\n            bytes(medications[_medicationID].medicationID).length != 0,\r\n            \"Medication does not exist\"\r\n        );\r\n\r\n        // Asegurarse de que el actor que intenta vender el medicamento es una farmacia y lo tiene en posesin\r\n        require(\r\n            medications[_medicationID].currentHolder == msg.sender &&\r\n                actors[msg.sender].actorType == uint256(ActorType.Pharmacy),\r\n            \"Either you do not have possession of this medication or you are not a pharmacy\"\r\n        );\r\n\r\n        // Establecer el currentHolder como la direccin nula para simular la venta\r\n        medications[_medicationID].currentHolder = address(0);\r\n    }\r\n\r\n    // Funcion para verificar la trazabilidad e integridad de un medicamento\r\n    function verifyMedication(string memory _medicationID)\r\n        public\r\n        view\r\n        returns (\r\n            address registeredBy,\r\n            bytes32 detailsHash,\r\n            bool isValidated\r\n        )\r\n    {\r\n        Medication memory medication = medications[_medicationID];\r\n\r\n        require(\r\n            bytes(medication.medicationID).length != 0,\r\n            \"Medicamento no registrado\"\r\n        );\r\n\r\n        return (\r\n            medication.registeredBy,\r\n            medication.detailsHash,\r\n            medication.isValidated\r\n        );\r\n    }\r\n\r\n    // Funcin para validar un medicamento (solo el organismo regulador puede hacerlo)\r\n    function validateMedication(string memory _medicationID) public onlyOwner {\r\n        require(\r\n            bytes(medications[_medicationID].medicationID).length != 0,\r\n            \"Medication does not exist\"\r\n        );\r\n        require(\r\n            !medications[_medicationID].isValidated,\r\n            \"Medication already validated\"\r\n        );\r\n\r\n        medications[_medicationID].isValidated = true;\r\n\r\n        emit MedicationValidated(_medicationID, msg.sender);\r\n    }\r\n\r\n    ///////////////////////////////////////////////////////////////\r\n    // Test functions\r\n\r\n    function changeOwner(address newOwner) public onlyOwner {\r\n        owner = newOwner;\r\n    }\r\n}\r\n",
  "sourcePath": "C:\\Users\\oansotegui\\Desktop\\IEBIS-Blockchain-Engineering-Project\\contracts\\MedProof.sol",
  "compiler": {
    "name": "solc",
    "version": "0.8.13+commit.abaa5c0e.Emscripten.clang"
  },
  "schemaVersion": "3.4.16",
  "updatedAt": "2023-10-18T04:41:53.676Z",
  "networkType": "ethereum",
  "devdoc": {
    "kind": "dev",
    "methods": {},
    "version": 1
  },
  "userdoc": {
    "kind": "user",
    "methods": {},
    "version": 1
  }
}